{
  "_format": "hh-sol-artifact-1",
  "contractName": "Muse",
  "sourceName": "contracts/helpers.sol",
  "abi": [
    {
      "anonymous": false,
      "inputs": [
        {
          "indexed": true,
          "internalType": "address",
          "name": "owner",
          "type": "address"
        },
        {
          "indexed": true,
          "internalType": "address",
          "name": "spender",
          "type": "address"
        },
        {
          "indexed": false,
          "internalType": "uint256",
          "name": "value",
          "type": "uint256"
        }
      ],
      "name": "Approval",
      "type": "event"
    },
    {
      "anonymous": false,
      "inputs": [
        {
          "indexed": true,
          "internalType": "address",
          "name": "from",
          "type": "address"
        },
        {
          "indexed": true,
          "internalType": "address",
          "name": "to",
          "type": "address"
        },
        {
          "indexed": false,
          "internalType": "uint256",
          "name": "value",
          "type": "uint256"
        }
      ],
      "name": "Transfer",
      "type": "event"
    },
    {
      "inputs": [
        {
          "internalType": "bytes32",
          "name": "_hashedMessage",
          "type": "bytes32"
        },
        {
          "internalType": "uint8",
          "name": "_v",
          "type": "uint8"
        },
        {
          "internalType": "bytes32",
          "name": "_r",
          "type": "bytes32"
        },
        {
          "internalType": "bytes32",
          "name": "_s",
          "type": "bytes32"
        }
      ],
      "name": "VerifyMessage",
      "outputs": [
        {
          "internalType": "address",
          "name": "",
          "type": "address"
        }
      ],
      "stateMutability": "pure",
      "type": "function"
    },
    {
      "inputs": [
        {
          "internalType": "address",
          "name": "owner",
          "type": "address"
        },
        {
          "internalType": "address",
          "name": "spender",
          "type": "address"
        }
      ],
      "name": "allowance",
      "outputs": [
        {
          "internalType": "uint256",
          "name": "",
          "type": "uint256"
        }
      ],
      "stateMutability": "view",
      "type": "function"
    },
    {
      "inputs": [
        {
          "internalType": "address",
          "name": "spender",
          "type": "address"
        },
        {
          "internalType": "uint256",
          "name": "amount",
          "type": "uint256"
        }
      ],
      "name": "approve",
      "outputs": [
        {
          "internalType": "bool",
          "name": "",
          "type": "bool"
        }
      ],
      "stateMutability": "nonpayable",
      "type": "function"
    },
    {
      "inputs": [
        {
          "internalType": "address",
          "name": "account",
          "type": "address"
        }
      ],
      "name": "balanceOf",
      "outputs": [
        {
          "internalType": "uint256",
          "name": "",
          "type": "uint256"
        }
      ],
      "stateMutability": "view",
      "type": "function"
    },
    {
      "inputs": [
        {
          "internalType": "address",
          "name": "user",
          "type": "address"
        },
        {
          "internalType": "uint256",
          "name": "amount",
          "type": "uint256"
        }
      ],
      "name": "checkDigest",
      "outputs": [
        {
          "internalType": "bytes32",
          "name": "",
          "type": "bytes32"
        },
        {
          "internalType": "bytes32",
          "name": "",
          "type": "bytes32"
        }
      ],
      "stateMutability": "pure",
      "type": "function"
    },
    {
      "inputs": [
        {
          "internalType": "address",
          "name": "user",
          "type": "address"
        },
        {
          "internalType": "uint256",
          "name": "amount",
          "type": "uint256"
        },
        {
          "internalType": "uint8",
          "name": "v",
          "type": "uint8"
        },
        {
          "internalType": "bytes32",
          "name": "r",
          "type": "bytes32"
        },
        {
          "internalType": "bytes32",
          "name": "s",
          "type": "bytes32"
        }
      ],
      "name": "checkSig",
      "outputs": [
        {
          "internalType": "address",
          "name": "",
          "type": "address"
        }
      ],
      "stateMutability": "pure",
      "type": "function"
    },
    {
      "inputs": [
        {
          "internalType": "bytes32",
          "name": "digest",
          "type": "bytes32"
        },
        {
          "internalType": "uint8",
          "name": "v",
          "type": "uint8"
        },
        {
          "internalType": "bytes32",
          "name": "r",
          "type": "bytes32"
        },
        {
          "internalType": "bytes32",
          "name": "s",
          "type": "bytes32"
        }
      ],
      "name": "checkSigNoBs",
      "outputs": [
        {
          "internalType": "address",
          "name": "",
          "type": "address"
        }
      ],
      "stateMutability": "pure",
      "type": "function"
    },
    {
      "inputs": [
        {
          "internalType": "address",
          "name": "user",
          "type": "address"
        },
        {
          "internalType": "uint256",
          "name": "amount",
          "type": "uint256"
        },
        {
          "internalType": "bytes",
          "name": "sig",
          "type": "bytes"
        }
      ],
      "name": "checkSigWhole",
      "outputs": [
        {
          "internalType": "address",
          "name": "",
          "type": "address"
        }
      ],
      "stateMutability": "pure",
      "type": "function"
    },
    {
      "inputs": [
        {
          "internalType": "address",
          "name": "server",
          "type": "address"
        },
        {
          "internalType": "address",
          "name": "user",
          "type": "address"
        },
        {
          "internalType": "uint256",
          "name": "amount",
          "type": "uint256"
        },
        {
          "internalType": "uint8",
          "name": "v",
          "type": "uint8"
        },
        {
          "internalType": "bytes32",
          "name": "r",
          "type": "bytes32"
        },
        {
          "internalType": "bytes32",
          "name": "s",
          "type": "bytes32"
        }
      ],
      "name": "claimTokens",
      "outputs": [],
      "stateMutability": "nonpayable",
      "type": "function"
    },
    {
      "inputs": [],
      "name": "decimals",
      "outputs": [
        {
          "internalType": "uint8",
          "name": "",
          "type": "uint8"
        }
      ],
      "stateMutability": "view",
      "type": "function"
    },
    {
      "inputs": [
        {
          "internalType": "address",
          "name": "spender",
          "type": "address"
        },
        {
          "internalType": "uint256",
          "name": "subtractedValue",
          "type": "uint256"
        }
      ],
      "name": "decreaseAllowance",
      "outputs": [
        {
          "internalType": "bool",
          "name": "",
          "type": "bool"
        }
      ],
      "stateMutability": "nonpayable",
      "type": "function"
    },
    {
      "inputs": [
        {
          "internalType": "address",
          "name": "spender",
          "type": "address"
        },
        {
          "internalType": "uint256",
          "name": "addedValue",
          "type": "uint256"
        }
      ],
      "name": "increaseAllowance",
      "outputs": [
        {
          "internalType": "bool",
          "name": "",
          "type": "bool"
        }
      ],
      "stateMutability": "nonpayable",
      "type": "function"
    },
    {
      "inputs": [
        {
          "internalType": "address",
          "name": "user",
          "type": "address"
        },
        {
          "internalType": "uint256",
          "name": "amount",
          "type": "uint256"
        }
      ],
      "name": "makeHash",
      "outputs": [
        {
          "internalType": "bytes32",
          "name": "",
          "type": "bytes32"
        }
      ],
      "stateMutability": "pure",
      "type": "function"
    },
    {
      "inputs": [],
      "name": "name",
      "outputs": [
        {
          "internalType": "string",
          "name": "",
          "type": "string"
        }
      ],
      "stateMutability": "view",
      "type": "function"
    },
    {
      "inputs": [
        {
          "internalType": "bytes",
          "name": "sig",
          "type": "bytes"
        }
      ],
      "name": "splitSignature",
      "outputs": [
        {
          "internalType": "bytes32",
          "name": "r",
          "type": "bytes32"
        },
        {
          "internalType": "bytes32",
          "name": "s",
          "type": "bytes32"
        },
        {
          "internalType": "uint8",
          "name": "v",
          "type": "uint8"
        }
      ],
      "stateMutability": "pure",
      "type": "function"
    },
    {
      "inputs": [],
      "name": "symbol",
      "outputs": [
        {
          "internalType": "string",
          "name": "",
          "type": "string"
        }
      ],
      "stateMutability": "view",
      "type": "function"
    },
    {
      "inputs": [],
      "name": "totalSupply",
      "outputs": [
        {
          "internalType": "uint256",
          "name": "",
          "type": "uint256"
        }
      ],
      "stateMutability": "view",
      "type": "function"
    },
    {
      "inputs": [
        {
          "internalType": "address",
          "name": "to",
          "type": "address"
        },
        {
          "internalType": "uint256",
          "name": "amount",
          "type": "uint256"
        }
      ],
      "name": "transfer",
      "outputs": [
        {
          "internalType": "bool",
          "name": "",
          "type": "bool"
        }
      ],
      "stateMutability": "nonpayable",
      "type": "function"
    },
    {
      "inputs": [
        {
          "internalType": "address",
          "name": "from",
          "type": "address"
        },
        {
          "internalType": "address",
          "name": "to",
          "type": "address"
        },
        {
          "internalType": "uint256",
          "name": "amount",
          "type": "uint256"
        }
      ],
      "name": "transferFrom",
      "outputs": [
        {
          "internalType": "bool",
          "name": "",
          "type": "bool"
        }
      ],
      "stateMutability": "nonpayable",
      "type": "function"
    }
  ],
  "bytecode": "0x608060405234801562000010575f80fd5b506040805180820182526004808252634d55534560e01b60208084018290528451808601909552918452908301529060036200004d838262000105565b5060046200005c828262000105565b505050620001cd565b634e487b7160e01b5f52604160045260245ffd5b600181811c908216806200008e57607f821691505b602082108103620000ad57634e487b7160e01b5f52602260045260245ffd5b50919050565b601f82111562000100575f81815260208120601f850160051c81016020861015620000db5750805b601f850160051c820191505b81811015620000fc57828155600101620000e7565b5050505b505050565b81516001600160401b0381111562000121576200012162000065565b620001398162000132845462000079565b84620000b3565b602080601f8311600181146200016f575f8415620001575750858301515b5f19600386901b1c1916600185901b178555620000fc565b5f85815260208120601f198616915b828110156200019f578886015182559484019460019091019084016200017e565b5085821015620001bd57878501515f19600388901b60f8161c191681555b5050505050600190811b01905550565b61107b80620001db5f395ff3fe608060405234801561000f575f80fd5b506004361061011c575f3560e01c806370a08231116100a9578063a7bb58031161006e578063a7bb580314610279578063a9059cbb146102aa578063b485ed4a146102bd578063d06090e0146102d0578063dd62ed3e146102e3575f80fd5b806370a0823114610210578063783d41bb146102385780638c24c02f1461024b57806395d89b411461025e578063a457c2d714610266575f80fd5b806323b872dd116100ef57806323b872dd146101885780632466558b1461019b578063313ce567146101c357806339509351146101d2578063659934c1146101e5575f80fd5b806306fdde0314610120578063095ea7b31461013e5780630c8ce8921461016157806318160ddd14610176575b5f80fd5b6101286102f6565b6040516101359190610c80565b60405180910390f35b61015161014c366004610ccd565b610386565b6040519015158152602001610135565b61017461016f366004610d05565b61039f565b005b6002545b604051908152602001610135565b610151610196366004610d60565b61041c565b6101ae6101a9366004610ccd565b61043f565b60408051928352602083019190915201610135565b60405160128152602001610135565b6101516101e0366004610ccd565b6104d5565b6101f86101f3366004610d99565b6104f6565b6040516001600160a01b039091168152602001610135565b61017a61021e366004610dd1565b6001600160a01b03165f9081526020819052604090205490565b6101f8610246366004610df1565b6105c3565b61017a610259366004610ccd565b610609565b61012861063b565b610151610274366004610ccd565b61064a565b61028c610287366004610e4f565b6106c4565b60408051938452602084019290925260ff1690820152606001610135565b6101516102b8366004610ccd565b610735565b6101f86102cb366004610d99565b610742565b6101f86102de366004610efa565b6107aa565b61017a6102f1366004610f7a565b61083a565b60606003805461030590610fab565b80601f016020809104026020016040519081016040528092919081815260200182805461033190610fab565b801561037c5780601f106103535761010080835404028352916020019161037c565b820191905f5260205f20905b81548152906001019060200180831161035f57829003601f168201915b5050505050905090565b5f33610393818585610864565b60019150505b92915050565b5f6103ad86868686866105c3565b9050806001600160a01b0316876001600160a01b0316146104095760405162461bcd60e51b8152602060048201526011602482015270496e76616c6964205369676e617475726560781b60448201526064015b60405180910390fd5b6104138686610987565b50505050505050565b5f33610429858285610a44565b610434858585610abc565b506001949350505050565b5f805f8484604051602001610455929190610fe3565b60408051601f1981840301815282825280516020918201208383018352601c84527f19457468657265756d205369676e6564204d6573736167653a0a3332000000008483015291519193505f916104b0918491869101611005565b60408051808303601f1901815291905280516020909101209792965091945050505050565b5f336103938185856104e7838361083a565b6104f19190611026565b610864565b5f806040518060400160405280601c81526020017f19457468657265756d205369676e6564204d6573736167653a0a33320000000081525090505f8187604051602001610544929190611005565b60408051601f1981840301815282825280516020918201205f80855291840180845281905260ff8a169284019290925260608301889052608083018790529092509060019060a0016020604051602081039080840390855afa1580156105ac573d5f803e3d5ffd5b5050604051601f1901519998505050505050505050565b5f8086866040516020016105d8929190610fe3565b6040516020818303038152906040528051906020012090505f6105fd828787876104f6565b98975050505050505050565b5f828260405160200161061d929190610fe3565b60405160208183030381529060405280519060200120905092915050565b60606004805461030590610fab565b5f3381610657828661083a565b9050838110156106b75760405162461bcd60e51b815260206004820152602560248201527f45524332303a2064656372656173656420616c6c6f77616e63652062656c6f77604482015264207a65726f60d81b6064820152608401610400565b6104348286868403610864565b5f805f83516041146107185760405162461bcd60e51b815260206004820152601860248201527f696e76616c6964207369676e6174757265206c656e67746800000000000000006044820152606401610400565b5050506020810151604082015160609092015190925f9190911a90565b5f33610393818585610abc565b604080515f8082526020820180845287905260ff8616928201929092526060810184905260808101839052819060019060a0016020604051602081039080840390855afa158015610795573d5f803e3d5ffd5b5050604051601f190151979650505050505050565b5f805f806107ec86868080601f0160208091040260200160405190810160405280939291908181526020018383808284375f920191909152506106c492505050565b9250925092505f8888604051602001610806929190610fe3565b6040516020818303038152906040528051906020012090505f61082b828487876104f6565b90505050505050949350505050565b6001600160a01b039182165f90815260016020908152604080832093909416825291909152205490565b6001600160a01b0383166108c65760405162461bcd60e51b8152602060048201526024808201527f45524332303a20617070726f76652066726f6d20746865207a65726f206164646044820152637265737360e01b6064820152608401610400565b6001600160a01b0382166109275760405162461bcd60e51b815260206004820152602260248201527f45524332303a20617070726f766520746f20746865207a65726f206164647265604482015261737360f01b6064820152608401610400565b6001600160a01b038381165f8181526001602090815260408083209487168084529482529182902085905590518481527f8c5be1e5ebec7d5bd14f71427d1e84f3dd0314c0f7b2291e5b200ac8c7c3b925910160405180910390a3505050565b6001600160a01b0382166109dd5760405162461bcd60e51b815260206004820152601f60248201527f45524332303a206d696e7420746f20746865207a65726f2061646472657373006044820152606401610400565b8060025f8282546109ee9190611026565b90915550506001600160a01b0382165f81815260208181526040808320805486019055518481527fddf252ad1be2c89b69c2b068fc378daa952ba7f163c4a11628f55a4df523b3ef910160405180910390a35050565b5f610a4f848461083a565b90505f198114610ab65781811015610aa95760405162461bcd60e51b815260206004820152601d60248201527f45524332303a20696e73756666696369656e7420616c6c6f77616e63650000006044820152606401610400565b610ab68484848403610864565b50505050565b6001600160a01b038316610b205760405162461bcd60e51b815260206004820152602560248201527f45524332303a207472616e736665722066726f6d20746865207a65726f206164604482015264647265737360d81b6064820152608401610400565b6001600160a01b038216610b825760405162461bcd60e51b815260206004820152602360248201527f45524332303a207472616e7366657220746f20746865207a65726f206164647260448201526265737360e81b6064820152608401610400565b6001600160a01b0383165f9081526020819052604090205481811015610bf95760405162461bcd60e51b815260206004820152602660248201527f45524332303a207472616e7366657220616d6f756e7420657863656564732062604482015265616c616e636560d01b6064820152608401610400565b6001600160a01b038481165f81815260208181526040808320878703905593871680835291849020805487019055925185815290927fddf252ad1be2c89b69c2b068fc378daa952ba7f163c4a11628f55a4df523b3ef910160405180910390a3610ab6565b5f5b83811015610c78578181015183820152602001610c60565b50505f910152565b602081525f8251806020840152610c9e816040850160208701610c5e565b601f01601f19169190910160400192915050565b80356001600160a01b0381168114610cc8575f80fd5b919050565b5f8060408385031215610cde575f80fd5b610ce783610cb2565b946020939093013593505050565b803560ff81168114610cc8575f80fd5b5f805f805f8060c08789031215610d1a575f80fd5b610d2387610cb2565b9550610d3160208801610cb2565b945060408701359350610d4660608801610cf5565b92506080870135915060a087013590509295509295509295565b5f805f60608486031215610d72575f80fd5b610d7b84610cb2565b9250610d8960208501610cb2565b9150604084013590509250925092565b5f805f8060808587031215610dac575f80fd5b84359350610dbc60208601610cf5565b93969395505050506040820135916060013590565b5f60208284031215610de1575f80fd5b610dea82610cb2565b9392505050565b5f805f805f60a08688031215610e05575f80fd5b610e0e86610cb2565b945060208601359350610e2360408701610cf5565b94979396509394606081013594506080013592915050565b634e487b7160e01b5f52604160045260245ffd5b5f60208284031215610e5f575f80fd5b813567ffffffffffffffff80821115610e76575f80fd5b818401915084601f830112610e89575f80fd5b813581811115610e9b57610e9b610e3b565b604051601f8201601f19908116603f01168101908382118183101715610ec357610ec3610e3b565b81604052828152876020848701011115610edb575f80fd5b826020860160208301375f928101602001929092525095945050505050565b5f805f8060608587031215610f0d575f80fd5b610f1685610cb2565b935060208501359250604085013567ffffffffffffffff80821115610f39575f80fd5b818701915087601f830112610f4c575f80fd5b813581811115610f5a575f80fd5b886020828501011115610f6b575f80fd5b95989497505060200194505050565b5f8060408385031215610f8b575f80fd5b610f9483610cb2565b9150610fa260208401610cb2565b90509250929050565b600181811c90821680610fbf57607f821691505b602082108103610fdd57634e487b7160e01b5f52602260045260245ffd5b50919050565b60609290921b6bffffffffffffffffffffffff19168252601482015260340190565b5f8351611016818460208801610c5e565b9190910191825250602001919050565b8082018082111561039957634e487b7160e01b5f52601160045260245ffdfea26469706673582212200decdead6d7ffd521961bbd1dc58402d0e73114325d82e08ec73fa444b8c990564736f6c63430008140033",
  "linkReferences": {},
  "deployedLinkReferences": {}
}